{
  "contractName": "Crowdsale",
  "abi": [
    {
      "constant": false,
      "inputs": [],
      "name": "checkGoalReached",
      "outputs": [],
      "payable": false,
      "stateMutability": "nonpayable",
      "type": "function"
    },
    {
      "constant": true,
      "inputs": [],
      "name": "deadline",
      "outputs": [
        {
          "name": "",
          "type": "uint256"
        }
      ],
      "payable": false,
      "stateMutability": "view",
      "type": "function"
    },
    {
      "constant": true,
      "inputs": [],
      "name": "beneficiary",
      "outputs": [
        {
          "name": "",
          "type": "address"
        }
      ],
      "payable": false,
      "stateMutability": "view",
      "type": "function"
    },
    {
      "constant": true,
      "inputs": [],
      "name": "fundingGoal",
      "outputs": [
        {
          "name": "",
          "type": "uint256"
        }
      ],
      "payable": false,
      "stateMutability": "view",
      "type": "function"
    },
    {
      "constant": true,
      "inputs": [],
      "name": "amountRaised",
      "outputs": [
        {
          "name": "",
          "type": "uint256"
        }
      ],
      "payable": false,
      "stateMutability": "view",
      "type": "function"
    },
    {
      "constant": true,
      "inputs": [],
      "name": "price",
      "outputs": [
        {
          "name": "",
          "type": "uint256"
        }
      ],
      "payable": false,
      "stateMutability": "view",
      "type": "function"
    },
    {
      "constant": true,
      "inputs": [],
      "name": "crowdsaleClosed",
      "outputs": [
        {
          "name": "",
          "type": "bool"
        }
      ],
      "payable": false,
      "stateMutability": "view",
      "type": "function"
    },
    {
      "constant": true,
      "inputs": [],
      "name": "fundingGoalReached",
      "outputs": [
        {
          "name": "",
          "type": "bool"
        }
      ],
      "payable": false,
      "stateMutability": "view",
      "type": "function"
    },
    {
      "constant": true,
      "inputs": [
        {
          "name": "",
          "type": "address"
        }
      ],
      "name": "balance",
      "outputs": [
        {
          "name": "",
          "type": "uint256"
        }
      ],
      "payable": false,
      "stateMutability": "view",
      "type": "function"
    },
    {
      "constant": true,
      "inputs": [],
      "name": "token",
      "outputs": [
        {
          "name": "",
          "type": "address"
        }
      ],
      "payable": false,
      "stateMutability": "view",
      "type": "function"
    },
    {
      "constant": false,
      "inputs": [],
      "name": "safeWithdrawal",
      "outputs": [],
      "payable": false,
      "stateMutability": "nonpayable",
      "type": "function"
    },
    {
      "inputs": [
        {
          "name": "_beneficiary",
          "type": "address"
        },
        {
          "name": "_fundingGoalInEthers",
          "type": "uint256"
        },
        {
          "name": "_durationInMinutes",
          "type": "uint256"
        },
        {
          "name": "_token",
          "type": "address"
        }
      ],
      "payable": false,
      "stateMutability": "nonpayable",
      "type": "constructor"
    },
    {
      "payable": true,
      "stateMutability": "payable",
      "type": "fallback"
    },
    {
      "anonymous": false,
      "inputs": [
        {
          "indexed": false,
          "name": "_beneficiary",
          "type": "address"
        },
        {
          "indexed": false,
          "name": "_amountRaised",
          "type": "uint256"
        }
      ],
      "name": "GoalReached",
      "type": "event"
    },
    {
      "anonymous": false,
      "inputs": [
        {
          "indexed": false,
          "name": "_backer",
          "type": "address"
        },
        {
          "indexed": false,
          "name": "_amount",
          "type": "uint256"
        },
        {
          "indexed": false,
          "name": "_isContribution",
          "type": "bool"
        }
      ],
      "name": "FundTransfer",
      "type": "event"
    }
  ],
  "bytecode": "0x606060405260008060006101000a81548173ffffffffffffffffffffffffffffffffffffffff021916908373ffffffffffffffffffffffffffffffffffffffff16021790555068056bc75e2d6310000060015560006002556000600560006101000a81548160ff0219169083151502179055506000600560016101000a81548160ff021916908315150217905550341561009857600080fd5b604051608080610aeb833981016040528080519060200190919080519060200190919080519060200190919080519060200190919050508360008173ffffffffffffffffffffffffffffffffffffffff16141515156100f657600080fd5b81600560026101000a81548173ffffffffffffffffffffffffffffffffffffffff021916908373ffffffffffffffffffffffffffffffffffffffff160217905550846000806101000a81548173ffffffffffffffffffffffffffffffffffffffff021916908373ffffffffffffffffffffffffffffffffffffffff160217905550670de0b6b3a76400008402600181905550603c830242016003819055506706f05b59d3b200006004819055505050505050610934806101b76000396000f3006060604052600436106100af576000357c0100000000000000000000000000000000000000000000000000000000900463ffffffff16806301cb3b201461028d57806329dcb0cf146102a257806338af3eed146102cb5780637a3a0e84146103205780637b3e5e7b14610349578063a035b1fe14610372578063ccb07cef1461039b578063d424f628146103c8578063e3d670d7146103f5578063fc0c546a14610442578063fd6b7ef814610497575b6000600560019054906101000a900460ff161515156100cd57600080fd5b34905080600660003373ffffffffffffffffffffffffffffffffffffffff1673ffffffffffffffffffffffffffffffffffffffff1681526020019081526020016000206000828254019250508190555080600260008282540192505081905550600560029054906101000a900473ffffffffffffffffffffffffffffffffffffffff1673ffffffffffffffffffffffffffffffffffffffff1663867904b4336004548481151561017957fe5b046040518363ffffffff167c0100000000000000000000000000000000000000000000000000000000028152600401808373ffffffffffffffffffffffffffffffffffffffff1673ffffffffffffffffffffffffffffffffffffffff16815260200182815260200192505050600060405180830381600087803b15156101fe57600080fd5b6102c65a03f1151561020f57600080fd5b5050507fe842aea7a5f1b01049d752008c53c52890b1a6daf660cf39e8eec506112bbdf633826001604051808473ffffffffffffffffffffffffffffffffffffffff1673ffffffffffffffffffffffffffffffffffffffff16815260200183815260200182151515158152602001935050505060405180910390a150005b341561029857600080fd5b6102a06104ac565b005b34156102ad57600080fd5b6102b561058c565b6040518082815260200191505060405180910390f35b34156102d657600080fd5b6102de610592565b604051808273ffffffffffffffffffffffffffffffffffffffff1673ffffffffffffffffffffffffffffffffffffffff16815260200191505060405180910390f35b341561032b57600080fd5b6103336105b7565b6040518082815260200191505060405180910390f35b341561035457600080fd5b61035c6105bd565b6040518082815260200191505060405180910390f35b341561037d57600080fd5b6103856105c3565b6040518082815260200191505060405180910390f35b34156103a657600080fd5b6103ae6105c9565b604051808215151515815260200191505060405180910390f35b34156103d357600080fd5b6103db6105dc565b604051808215151515815260200191505060405180910390f35b341561040057600080fd5b61042c600480803573ffffffffffffffffffffffffffffffffffffffff169060200190919050506105ef565b6040518082815260200191505060405180910390f35b341561044d57600080fd5b610455610607565b604051808273ffffffffffffffffffffffffffffffffffffffff1673ffffffffffffffffffffffffffffffffffffffff16815260200191505060405180910390f35b34156104a257600080fd5b6104aa61062d565b005b6003544210151561058a5760015460025410151561056e576001600560006101000a81548160ff0219169083151502179055507fec3f991caf7857d61663fd1bba1739e04abd4781238508cde554bb849d790c856000809054906101000a900473ffffffffffffffffffffffffffffffffffffffff16600254604051808373ffffffffffffffffffffffffffffffffffffffff1673ffffffffffffffffffffffffffffffffffffffff1681526020018281526020019250505060405180910390a15b6001600560016101000a81548160ff0219169083151502179055505b565b60035481565b6000809054906101000a900473ffffffffffffffffffffffffffffffffffffffff1681565b60015481565b60025481565b60045481565b600560019054906101000a900460ff1681565b600560009054906101000a900460ff1681565b60066020528060005260406000206000915090505481565b600560029054906101000a900473ffffffffffffffffffffffffffffffffffffffff1681565b60006003544210151561090557600560009054906101000a900460ff16151561079a57600660003373ffffffffffffffffffffffffffffffffffffffff1673ffffffffffffffffffffffffffffffffffffffff1681526020019081526020016000205490506000811115610799573373ffffffffffffffffffffffffffffffffffffffff166108fc829081150290604051600060405180830381858888f1935050505015156106db57600080fd5b7fe842aea7a5f1b01049d752008c53c52890b1a6daf660cf39e8eec506112bbdf633826000604051808473ffffffffffffffffffffffffffffffffffffffff1673ffffffffffffffffffffffffffffffffffffffff16815260200183815260200182151515158152602001935050505060405180910390a16000600660003373ffffffffffffffffffffffffffffffffffffffff1673ffffffffffffffffffffffffffffffffffffffff168152602001908152602001600020819055505b5b600560009054906101000a900460ff16801561080257503373ffffffffffffffffffffffffffffffffffffffff166000809054906101000a900473ffffffffffffffffffffffffffffffffffffffff1673ffffffffffffffffffffffffffffffffffffffff16145b15610904576000809054906101000a900473ffffffffffffffffffffffffffffffffffffffff1673ffffffffffffffffffffffffffffffffffffffff166108fc6002549081150290604051600060405180830381858888f19350505050151561086a57600080fd5b7fe842aea7a5f1b01049d752008c53c52890b1a6daf660cf39e8eec506112bbdf66000809054906101000a900473ffffffffffffffffffffffffffffffffffffffff16826000604051808473ffffffffffffffffffffffffffffffffffffffff1673ffffffffffffffffffffffffffffffffffffffff16815260200183815260200182151515158152602001935050505060405180910390a15b5b505600a165627a7a72305820bd2ead6d347cb483e076a74abd6946a1045d6c2017218314b3c4dad4d7f6e9990029",
  "source": "pragma solidity ^0.4.17;\n\n\nimport './Utils.sol';\nimport './interfaces/ISmartToken.sol';\n\n\n/**\n * 众筹合约\n */\ncontract Crowdsale is Utils {\n    address public beneficiary = 0x0; //受益人地址，测试时为合约创建者\n    uint256 public fundingGoal = 100 ether;  //众筹目标，单位是ether\n    uint256 public amountRaised = 0; //已筹集金额数量， 单位是wei\n    uint256 public deadline; //截止时间\n    uint256 public price;  //代币价格\n    bool public fundingGoalReached = false;  //达成众筹目标\n    bool public crowdsaleClosed = false; //众筹关闭\n\n    ISmartToken public token;   // smart token\n\n    mapping(address => uint256) public balance; //保存众筹地址\n\n    //记录已接收的ether通知\n    event GoalReached(address _beneficiary, uint _amountRaised);\n\n    //转帐通知\n    event FundTransfer(address _backer, uint _amount, bool _isContribution);\n\n    /**\n     * 初始化构造函数\n     *\n     * @param _beneficiary 受益人地址\n     * @param _fundingGoalInEthers 众筹以太币总量\n     * @param _durationInMinutes 众筹截止,单位是分钟\n     * @param _token 众筹代币\n     */\n    function Crowdsale(\n        address _beneficiary,\n        uint _fundingGoalInEthers,\n        uint _durationInMinutes,\n        ISmartToken _token\n    )\n        public\n        validAddress(_beneficiary)\n    {\n        token = _token;\n        beneficiary = _beneficiary;\n        fundingGoal = _fundingGoalInEthers * 1 ether;\n        deadline = now + _durationInMinutes * 1 minutes;\n        price = 500 finney; //1个以太币可以买 2 个代币\n    }\n\n\n    /**\n     * 默认函数\n     *\n     * 默认函数，可以向合约直接打款\n     */\n    function () payable public {\n\n        //判断是否关闭众筹\n        require(!crowdsaleClosed);\n        uint amount = msg.value;\n\n        //捐款人的金额累加\n        balance[msg.sender] += amount;\n\n        //捐款总额累加\n        amountRaised += amount;\n\n        //转帐操作，转多少代币给捐款人\n        token.issue(msg.sender, amount / price);\n        FundTransfer(msg.sender, amount, true);\n    }\n\n    /**\n     * 判断是否已经过了众筹截止限期\n     */\n    modifier afterDeadline() { if (now >= deadline) _; }\n\n    /**\n     * 检测众筹目标是否已经达到\n     */\n    function checkGoalReached() public afterDeadline {\n        if (amountRaised >= fundingGoal){\n            //达成众筹目标\n            fundingGoalReached = true;\n            GoalReached(beneficiary, amountRaised);\n        }\n\n        //关闭众筹\n        crowdsaleClosed = true;\n    }\n\n\n    /**\n     * 收回资金\n     *\n     * 检查是否达到了目标或时间限制，如果有，并且达到了资金目标，\n     * 将全部金额发送给受益人。如果没有达到目标，每个贡献者都可以退出\n     * 他们贡献的金额\n     */\n    function safeWithdrawal() public afterDeadline {\n\n        //如果没有达成众筹目标\n        if (!fundingGoalReached) {\n            //获取合约调用者已捐款余额\n            uint amount = balance[msg.sender];\n\n            if (amount > 0) {\n                //返回合约发起者所有余额\n                msg.sender.transfer(amount);\n                FundTransfer(msg.sender, amount, false);\n                balance[msg.sender] = 0;\n            }\n        }\n\n        //如果达成众筹目标，并且合约调用者是受益人\n        if (fundingGoalReached && beneficiary == msg.sender) {\n\n            //将所有捐款从合约中给受益人\n            beneficiary.transfer(amountRaised);\n\n            FundTransfer(beneficiary, amount, false);\n        }\n    }\n}\n",
  "sourcePath": "/Users/lion/my_project/_eth/test_truffle1/contracts/Crowdsale.sol",
  "compiler": {
    "name": "solc",
    "version": "0.4.18+commit.9cf6e910.Emscripten.clang"
  },
  "schemaVersion": "1.0.1",
  "updatedAt": "2017-11-05T13:45:28.513Z"
}