{
  "contractName": "MyAdvancedToken",
  "abi": [
    {
      "constant": false,
      "inputs": [
        {
          "name": "newSellPrice",
          "type": "uint256"
        },
        {
          "name": "newBuyPrice",
          "type": "uint256"
        }
      ],
      "name": "setPrices",
      "outputs": [],
      "payable": false,
      "stateMutability": "nonpayable",
      "type": "function"
    },
    {
      "constant": true,
      "inputs": [],
      "name": "name",
      "outputs": [
        {
          "name": "",
          "type": "string"
        }
      ],
      "payable": false,
      "stateMutability": "view",
      "type": "function"
    },
    {
      "constant": false,
      "inputs": [
        {
          "name": "_spender",
          "type": "address"
        },
        {
          "name": "_value",
          "type": "uint256"
        }
      ],
      "name": "approve",
      "outputs": [
        {
          "name": "success",
          "type": "bool"
        }
      ],
      "payable": false,
      "stateMutability": "nonpayable",
      "type": "function"
    },
    {
      "constant": true,
      "inputs": [],
      "name": "totalSupply",
      "outputs": [
        {
          "name": "",
          "type": "uint256"
        }
      ],
      "payable": false,
      "stateMutability": "view",
      "type": "function"
    },
    {
      "constant": false,
      "inputs": [
        {
          "name": "_from",
          "type": "address"
        },
        {
          "name": "_to",
          "type": "address"
        },
        {
          "name": "_value",
          "type": "uint256"
        }
      ],
      "name": "transferFrom",
      "outputs": [
        {
          "name": "",
          "type": "bool"
        }
      ],
      "payable": false,
      "stateMutability": "nonpayable",
      "type": "function"
    },
    {
      "constant": true,
      "inputs": [],
      "name": "decimals",
      "outputs": [
        {
          "name": "",
          "type": "uint8"
        }
      ],
      "payable": false,
      "stateMutability": "view",
      "type": "function"
    },
    {
      "constant": true,
      "inputs": [],
      "name": "sellPrice",
      "outputs": [
        {
          "name": "",
          "type": "uint256"
        }
      ],
      "payable": false,
      "stateMutability": "view",
      "type": "function"
    },
    {
      "constant": true,
      "inputs": [],
      "name": "standard",
      "outputs": [
        {
          "name": "",
          "type": "string"
        }
      ],
      "payable": false,
      "stateMutability": "view",
      "type": "function"
    },
    {
      "constant": true,
      "inputs": [
        {
          "name": "",
          "type": "address"
        }
      ],
      "name": "balanceOf",
      "outputs": [
        {
          "name": "",
          "type": "uint256"
        }
      ],
      "payable": false,
      "stateMutability": "view",
      "type": "function"
    },
    {
      "constant": false,
      "inputs": [],
      "name": "acceptOwnership",
      "outputs": [],
      "payable": false,
      "stateMutability": "nonpayable",
      "type": "function"
    },
    {
      "constant": false,
      "inputs": [
        {
          "name": "target",
          "type": "address"
        },
        {
          "name": "mintedAmount",
          "type": "uint256"
        }
      ],
      "name": "mintToken",
      "outputs": [],
      "payable": false,
      "stateMutability": "nonpayable",
      "type": "function"
    },
    {
      "constant": true,
      "inputs": [],
      "name": "buyPrice",
      "outputs": [
        {
          "name": "",
          "type": "uint256"
        }
      ],
      "payable": false,
      "stateMutability": "view",
      "type": "function"
    },
    {
      "constant": true,
      "inputs": [],
      "name": "owner",
      "outputs": [
        {
          "name": "",
          "type": "address"
        }
      ],
      "payable": false,
      "stateMutability": "view",
      "type": "function"
    },
    {
      "constant": true,
      "inputs": [],
      "name": "symbol",
      "outputs": [
        {
          "name": "",
          "type": "string"
        }
      ],
      "payable": false,
      "stateMutability": "view",
      "type": "function"
    },
    {
      "constant": false,
      "inputs": [],
      "name": "buy",
      "outputs": [],
      "payable": true,
      "stateMutability": "payable",
      "type": "function"
    },
    {
      "constant": false,
      "inputs": [
        {
          "name": "_to",
          "type": "address"
        },
        {
          "name": "_value",
          "type": "uint256"
        }
      ],
      "name": "transfer",
      "outputs": [
        {
          "name": "",
          "type": "bool"
        }
      ],
      "payable": false,
      "stateMutability": "nonpayable",
      "type": "function"
    },
    {
      "constant": true,
      "inputs": [
        {
          "name": "",
          "type": "address"
        }
      ],
      "name": "frozenAccount",
      "outputs": [
        {
          "name": "",
          "type": "bool"
        }
      ],
      "payable": false,
      "stateMutability": "view",
      "type": "function"
    },
    {
      "constant": true,
      "inputs": [],
      "name": "newOwner",
      "outputs": [
        {
          "name": "",
          "type": "address"
        }
      ],
      "payable": false,
      "stateMutability": "view",
      "type": "function"
    },
    {
      "constant": true,
      "inputs": [
        {
          "name": "",
          "type": "address"
        },
        {
          "name": "",
          "type": "address"
        }
      ],
      "name": "allowance",
      "outputs": [
        {
          "name": "",
          "type": "uint256"
        }
      ],
      "payable": false,
      "stateMutability": "view",
      "type": "function"
    },
    {
      "constant": false,
      "inputs": [
        {
          "name": "amount",
          "type": "uint256"
        }
      ],
      "name": "sell",
      "outputs": [],
      "payable": false,
      "stateMutability": "nonpayable",
      "type": "function"
    },
    {
      "constant": false,
      "inputs": [
        {
          "name": "target",
          "type": "address"
        },
        {
          "name": "freeze",
          "type": "bool"
        }
      ],
      "name": "freezeAccount",
      "outputs": [],
      "payable": false,
      "stateMutability": "nonpayable",
      "type": "function"
    },
    {
      "constant": false,
      "inputs": [
        {
          "name": "_newOwner",
          "type": "address"
        }
      ],
      "name": "transferOwnership",
      "outputs": [],
      "payable": false,
      "stateMutability": "nonpayable",
      "type": "function"
    },
    {
      "inputs": [],
      "payable": false,
      "stateMutability": "nonpayable",
      "type": "constructor"
    },
    {
      "anonymous": false,
      "inputs": [
        {
          "indexed": false,
          "name": "target",
          "type": "address"
        },
        {
          "indexed": false,
          "name": "frozen",
          "type": "bool"
        }
      ],
      "name": "FrozenFunds",
      "type": "event"
    },
    {
      "anonymous": false,
      "inputs": [
        {
          "indexed": true,
          "name": "from",
          "type": "address"
        },
        {
          "indexed": true,
          "name": "to",
          "type": "address"
        },
        {
          "indexed": false,
          "name": "value",
          "type": "uint256"
        }
      ],
      "name": "Transfer",
      "type": "event"
    },
    {
      "anonymous": false,
      "inputs": [
        {
          "indexed": true,
          "name": "_owner",
          "type": "address"
        },
        {
          "indexed": true,
          "name": "_spender",
          "type": "address"
        },
        {
          "indexed": false,
          "name": "_value",
          "type": "uint256"
        }
      ],
      "name": "Approval",
      "type": "event"
    },
    {
      "anonymous": false,
      "inputs": [
        {
          "indexed": false,
          "name": "_prevOwner",
          "type": "address"
        },
        {
          "indexed": false,
          "name": "_newOwner",
          "type": "address"
        }
      ],
      "name": "OwnerUpdate",
      "type": "event"
    }
  ],
  "bytecode": "0x60606040526040805190810160405280601081526020017f68747470733a2f2f6d73686b2e746f7000000000000000000000000000000000815250600290805190602001906200005192919062000204565b506020604051908101604052806000815250600390805190602001906200007a92919062000204565b50602060405190810160405280600081525060049080519060200190620000a392919062000204565b506000600560006101000a81548160ff021916908360ff16021790555060006006553415620000d157600080fd5b6040805190810160405280601781526020017f6d73686b2e746f7020416476616e63656420546f6b656e0000000000000000008152506040805190810160405280600681526020017f4d53484b2d4800000000000000000000000000000000000000000000000000008152506002336000806101000a81548173ffffffffffffffffffffffffffffffffffffffff021916908373ffffffffffffffffffffffffffffffffffffffff1602179055506000835111801562000192575060008251115b15156200019e57600080fd5b8260039080519060200190620001b692919062000204565b508160049080519060200190620001cf92919062000204565b5080600560006101000a81548160ff021916908360ff16021790555050505060026009819055506004600a81905550620002b3565b828054600181600116156101000203166002900490600052602060002090601f016020900481019282601f106200024757805160ff191683800117855562000278565b8280016001018555821562000278579182015b82811115620002775782518255916020019190600101906200025a565b5b5090506200028791906200028b565b5090565b620002b091905b80821115620002ac57600081600090555060010162000292565b5090565b90565b6118a380620002c36000396000f300606060405260043610610128576000357c0100000000000000000000000000000000000000000000000000000000900463ffffffff16806305fefda71461012d57806306fdde0314610159578063095ea7b3146101e757806318160ddd1461024157806323b872dd1461026a578063313ce567146102e35780634b750334146103125780635a3b7e421461033b57806370a08231146103c957806379ba50971461041657806379c650681461042b5780638620410b1461046d5780638da5cb5b1461049657806395d89b41146104eb578063a6f2ae3a14610579578063a9059cbb14610583578063b414d4b6146105dd578063d4ee1d901461062e578063dd62ed3e14610683578063e4849b32146106ef578063e724529c14610712578063f2fde38b14610756575b600080fd5b341561013857600080fd5b610157600480803590602001909190803590602001909190505061078f565b005b341561016457600080fd5b61016c6107f9565b6040518080602001828103825283818151815260200191508051906020019080838360005b838110156101ac578082015181840152602081019050610191565b50505050905090810190601f1680156101d95780820380516001836020036101000a031916815260200191505b509250505060405180910390f35b34156101f257600080fd5b610227600480803573ffffffffffffffffffffffffffffffffffffffff16906020019091908035906020019091905050610897565b604051808215151515815260200191505060405180910390f35b341561024c57600080fd5b610254610a47565b6040518082815260200191505060405180910390f35b341561027557600080fd5b6102c9600480803573ffffffffffffffffffffffffffffffffffffffff1690602001909190803573ffffffffffffffffffffffffffffffffffffffff16906020019091908035906020019091905050610a4d565b604051808215151515815260200191505060405180910390f35b34156102ee57600080fd5b6102f6610c4f565b604051808260ff1660ff16815260200191505060405180910390f35b341561031d57600080fd5b610325610c62565b6040518082815260200191505060405180910390f35b341561034657600080fd5b61034e610c68565b6040518080602001828103825283818151815260200191508051906020019080838360005b8381101561038e578082015181840152602081019050610373565b50505050905090810190601f1680156103bb5780820380516001836020036101000a031916815260200191505b509250505060405180910390f35b34156103d457600080fd5b610400600480803573ffffffffffffffffffffffffffffffffffffffff16906020019091905050610d06565b6040518082815260200191505060405180910390f35b341561042157600080fd5b610429610d1e565b005b341561043657600080fd5b61046b600480803573ffffffffffffffffffffffffffffffffffffffff16906020019091908035906020019091905050610efa565b005b341561047857600080fd5b610480611090565b6040518082815260200191505060405180910390f35b34156104a157600080fd5b6104a9611096565b604051808273ffffffffffffffffffffffffffffffffffffffff1673ffffffffffffffffffffffffffffffffffffffff16815260200191505060405180910390f35b34156104f657600080fd5b6104fe6110bb565b6040518080602001828103825283818151815260200191508051906020019080838360005b8381101561053e578082015181840152602081019050610523565b50505050905090810190601f16801561056b5780820380516001836020036101000a031916815260200191505b509250505060405180910390f35b610581611159565b005b341561058e57600080fd5b6105c3600480803573ffffffffffffffffffffffffffffffffffffffff16906020019091908035906020019091905050611179565b604051808215151515815260200191505060405180910390f35b34156105e857600080fd5b610614600480803573ffffffffffffffffffffffffffffffffffffffff169060200190919050506111b8565b604051808215151515815260200191505060405180910390f35b341561063957600080fd5b6106416111d8565b604051808273ffffffffffffffffffffffffffffffffffffffff1673ffffffffffffffffffffffffffffffffffffffff16815260200191505060405180910390f35b341561068e57600080fd5b6106d9600480803573ffffffffffffffffffffffffffffffffffffffff1690602001909190803573ffffffffffffffffffffffffffffffffffffffff169060200190919050506111fe565b6040518082815260200191505060405180910390f35b34156106fa57600080fd5b6107106004808035906020019091905050611223565b005b341561071d57600080fd5b610754600480803573ffffffffffffffffffffffffffffffffffffffff16906020019091908035151590602001909190505061129f565b005b341561076157600080fd5b61078d600480803573ffffffffffffffffffffffffffffffffffffffff169060200190919050506113e9565b005b6000809054906101000a900473ffffffffffffffffffffffffffffffffffffffff1673ffffffffffffffffffffffffffffffffffffffff163373ffffffffffffffffffffffffffffffffffffffff161415156107e757fe5b8160098190555080600a819055505050565b60038054600181600116156101000203166002900480601f01602080910402602001604051908101604052809291908181526020018280546001816001161561010002031660029004801561088f5780601f106108645761010080835404028352916020019161088f565b820191906000526020600020905b81548152906001019060200180831161087257829003601f168201915b505050505081565b60008260008173ffffffffffffffffffffffffffffffffffffffff16141515156108c057600080fd5b600083148061094b57506000600860003373ffffffffffffffffffffffffffffffffffffffff1673ffffffffffffffffffffffffffffffffffffffff16815260200190815260200160002060008673ffffffffffffffffffffffffffffffffffffffff1673ffffffffffffffffffffffffffffffffffffffff16815260200190815260200160002054145b151561095657600080fd5b82600860003373ffffffffffffffffffffffffffffffffffffffff1673ffffffffffffffffffffffffffffffffffffffff16815260200190815260200160002060008673ffffffffffffffffffffffffffffffffffffffff1673ffffffffffffffffffffffffffffffffffffffff168152602001908152602001600020819055508373ffffffffffffffffffffffffffffffffffffffff163373ffffffffffffffffffffffffffffffffffffffff167f8c5be1e5ebec7d5bd14f71427d1e84f3dd0314c0f7b2291e5b200ac8c7c3b925856040518082815260200191505060405180910390a3600191505092915050565b60065481565b60008360008173ffffffffffffffffffffffffffffffffffffffff1614151515610a7657600080fd5b8360008173ffffffffffffffffffffffffffffffffffffffff1614151515610a9d57600080fd5b600860008773ffffffffffffffffffffffffffffffffffffffff1673ffffffffffffffffffffffffffffffffffffffff16815260200190815260200160002060003373ffffffffffffffffffffffffffffffffffffffff1673ffffffffffffffffffffffffffffffffffffffff168152602001908152602001600020548411151515610b2857600080fd5b610bae600860008873ffffffffffffffffffffffffffffffffffffffff1673ffffffffffffffffffffffffffffffffffffffff16815260200190815260200160002060003373ffffffffffffffffffffffffffffffffffffffff1673ffffffffffffffffffffffffffffffffffffffff16815260200190815260200160002054856114e1565b600860008873ffffffffffffffffffffffffffffffffffffffff1673ffffffffffffffffffffffffffffffffffffffff16815260200190815260200160002060003373ffffffffffffffffffffffffffffffffffffffff1673ffffffffffffffffffffffffffffffffffffffff16815260200190815260200160002060008282540392505081905550610c428686866114fa565b6001925050509392505050565b600560009054906101000a900460ff1681565b60095481565b60028054600181600116156101000203166002900480601f016020809104026020016040519081016040528092919081815260200182805460018160011615610100020316600290048015610cfe5780601f10610cd357610100808354040283529160200191610cfe565b820191906000526020600020905b815481529060010190602001808311610ce157829003601f168201915b505050505081565b60076020528060005260406000206000915090505481565b600160009054906101000a900473ffffffffffffffffffffffffffffffffffffffff1673ffffffffffffffffffffffffffffffffffffffff163373ffffffffffffffffffffffffffffffffffffffff16141515610d7a57600080fd5b7f343765429aea5a34b3ff6a3785a98a5abb2597aca87bfbb58632c173d585373a6000809054906101000a900473ffffffffffffffffffffffffffffffffffffffff16600160009054906101000a900473ffffffffffffffffffffffffffffffffffffffff16604051808373ffffffffffffffffffffffffffffffffffffffff1673ffffffffffffffffffffffffffffffffffffffff1681526020018273ffffffffffffffffffffffffffffffffffffffff1673ffffffffffffffffffffffffffffffffffffffff1681526020019250505060405180910390a1600160009054906101000a900473ffffffffffffffffffffffffffffffffffffffff166000806101000a81548173ffffffffffffffffffffffffffffffffffffffff021916908373ffffffffffffffffffffffffffffffffffffffff1602179055506000600160006101000a81548173ffffffffffffffffffffffffffffffffffffffff021916908373ffffffffffffffffffffffffffffffffffffffff160217905550565b8160008173ffffffffffffffffffffffffffffffffffffffff1614151515610f2157600080fd5b6000809054906101000a900473ffffffffffffffffffffffffffffffffffffffff1673ffffffffffffffffffffffffffffffffffffffff163373ffffffffffffffffffffffffffffffffffffffff16141515610f7957fe5b81600760008573ffffffffffffffffffffffffffffffffffffffff1673ffffffffffffffffffffffffffffffffffffffff16815260200190815260200160002060008282540192505081905550816006600082825401925050819055503073ffffffffffffffffffffffffffffffffffffffff1660007fddf252ad1be2c89b69c2b068fc378daa952ba7f163c4a11628f55a4df523b3ef846040518082815260200191505060405180910390a38273ffffffffffffffffffffffffffffffffffffffff163073ffffffffffffffffffffffffffffffffffffffff167fddf252ad1be2c89b69c2b068fc378daa952ba7f163c4a11628f55a4df523b3ef846040518082815260200191505060405180910390a3505050565b600a5481565b6000809054906101000a900473ffffffffffffffffffffffffffffffffffffffff1681565b60048054600181600116156101000203166002900480601f0160208091040260200160405190810160405280929190818152602001828054600181600116156101000203166002900480156111515780601f1061112657610100808354040283529160200191611151565b820191906000526020600020905b81548152906001019060200180831161113457829003601f168201915b505050505081565b6000600a543481151561116857fe5b0490506111763033836114fa565b50565b60008260008173ffffffffffffffffffffffffffffffffffffffff16141515156111a257600080fd5b6111ad3385856114fa565b600191505092915050565b600b6020528060005260406000206000915054906101000a900460ff1681565b600160009054906101000a900473ffffffffffffffffffffffffffffffffffffffff1681565b6008602052816000526040600020602052806000526040600020600091509150505481565b60095481023073ffffffffffffffffffffffffffffffffffffffff16311015151561124d57600080fd5b6112583330836114fa565b3373ffffffffffffffffffffffffffffffffffffffff166108fc60095483029081150290604051600060405180830381858888f19350505050151561129c57600080fd5b50565b8160008173ffffffffffffffffffffffffffffffffffffffff16141515156112c657600080fd5b6000809054906101000a900473ffffffffffffffffffffffffffffffffffffffff1673ffffffffffffffffffffffffffffffffffffffff163373ffffffffffffffffffffffffffffffffffffffff1614151561131e57fe5b81600b60008573ffffffffffffffffffffffffffffffffffffffff1673ffffffffffffffffffffffffffffffffffffffff16815260200190815260200160002060006101000a81548160ff0219169083151502179055507f48335238b4855f35377ed80f164e8c6f3c366e54ac00b96a6402d4a9814a03a58383604051808373ffffffffffffffffffffffffffffffffffffffff1673ffffffffffffffffffffffffffffffffffffffff168152602001821515151581526020019250505060405180910390a1505050565b6000809054906101000a900473ffffffffffffffffffffffffffffffffffffffff1673ffffffffffffffffffffffffffffffffffffffff163373ffffffffffffffffffffffffffffffffffffffff1614151561144157fe5b6000809054906101000a900473ffffffffffffffffffffffffffffffffffffffff1673ffffffffffffffffffffffffffffffffffffffff168173ffffffffffffffffffffffffffffffffffffffff161415151561149d57600080fd5b80600160006101000a81548173ffffffffffffffffffffffffffffffffffffffff021916908373ffffffffffffffffffffffffffffffffffffffff16021790555050565b60008183101515156114ef57fe5b818303905092915050565b8260008173ffffffffffffffffffffffffffffffffffffffff161415151561152157600080fd5b8260008173ffffffffffffffffffffffffffffffffffffffff161415151561154857600080fd5b82600760008773ffffffffffffffffffffffffffffffffffffffff1673ffffffffffffffffffffffffffffffffffffffff1681526020019081526020016000205411151561159557600080fd5b600760008573ffffffffffffffffffffffffffffffffffffffff1673ffffffffffffffffffffffffffffffffffffffff1681526020019081526020016000205483600760008773ffffffffffffffffffffffffffffffffffffffff1673ffffffffffffffffffffffffffffffffffffffff168152602001908152602001600020540111151561162357600080fd5b600b60008673ffffffffffffffffffffffffffffffffffffffff1673ffffffffffffffffffffffffffffffffffffffff16815260200190815260200160002060009054906101000a900460ff1615151561167c57600080fd5b600b60008573ffffffffffffffffffffffffffffffffffffffff1673ffffffffffffffffffffffffffffffffffffffff16815260200190815260200160002060009054906101000a900460ff161515156116d557600080fd5b61171e600760008773ffffffffffffffffffffffffffffffffffffffff1673ffffffffffffffffffffffffffffffffffffffff16815260200190815260200160002054846114e1565b600760008773ffffffffffffffffffffffffffffffffffffffff1673ffffffffffffffffffffffffffffffffffffffff168152602001908152602001600020819055506117aa600760008673ffffffffffffffffffffffffffffffffffffffff1673ffffffffffffffffffffffffffffffffffffffff1681526020019081526020016000205484611859565b600760008673ffffffffffffffffffffffffffffffffffffffff1673ffffffffffffffffffffffffffffffffffffffff168152602001908152602001600020819055508373ffffffffffffffffffffffffffffffffffffffff168573ffffffffffffffffffffffffffffffffffffffff167fddf252ad1be2c89b69c2b068fc378daa952ba7f163c4a11628f55a4df523b3ef856040518082815260200191505060405180910390a35050505050565b600080828401905083811015151561186d57fe5b80915050929150505600a165627a7a723058205ac5d71948c4c21c2d34ba3f95c12f83e5f9eb09dbbf607fd88dcac43927b1b60029",
  "source": "pragma solidity ^0.4.17;\nimport './Token.sol';\nimport './Owned.sol';\nimport './interfaces/IMyAdvancedToken.sol';\n\n/**\n * @title 高级版代币\n * 增加冻结用户、挖矿、根据指定汇率购买(售出)代币价格的功能\n */\ncontract MyAdvancedToken is IMyAdvancedToken, Owned, Token {\n\n    //卖出的汇率,一个代币，可以卖出多少个以太币，单位是wei\n    uint256 public sellPrice;\n\n    //买入的汇率,1个以太币，可以买几个代币\n    uint256 public buyPrice;\n\n    //是否冻结帐户的列表\n    mapping (address => bool) public frozenAccount;\n\n    //定义一个事件，当有资产被冻结的时候，通知正在监听事件的客户端\n    event FrozenFunds(address target, bool frozen);\n\n\n    /*初始化合约，并且把初始的所有的令牌都给这合约的创建者\n     */\n    function MyAdvancedToken()\n      public\n      Token ('mshk.top Advanced Token', 'MSHK-H', 2)\n    {\n        sellPrice = 2;     //设置1个单位的代币(单位是wei)，能够卖出2个以太币\n        buyPrice = 4;      //设置1个以太币，可以买0.25个代币\n    }\n\n\n    /**\n     * 私有方法，从指定帐户转出余额\n     * @param  _from address 发送代币的地址\n     * @param  _to address 接受代币的地址\n     * @param  _value uint256 接受代币的数量\n     */\n    function _transfer(address _from, address _to, uint _value)\n        validAddress(_from)\n        validAddress(_to)\n        internal\n    {\n        //检查发送者是否拥有足够余额\n        require (balanceOf[_from] > _value);\n\n        //检查是否溢出\n        require (balanceOf[_to] + _value > balanceOf[_to]);\n\n        //检查 冻结帐户\n        require(!frozenAccount[_from]);\n        require(!frozenAccount[_to]);\n\n\n\n        //从发送者减掉发送额\n        balanceOf[_from] = safeSub(balanceOf[_from], _value);\n\n        //给接收者加上相同的量\n        balanceOf[_to] = safeAdd(balanceOf[_to], _value);\n\n        //通知任何监听该交易的客户端\n        Transfer(_from, _to, _value);\n\n    }\n\n    /**\n     * 合约拥有者，可以为指定帐户创造一些代币\n     * @param  target address 帐户地址\n     * @param  mintedAmount uint256 增加的金额(单位是wei)\n     */\n    function mintToken(address target, uint256 mintedAmount)\n        validAddress(target)\n        public\n        onlyOwner\n    {\n\n        //给指定地址增加代币，同时总量也相加\n        balanceOf[target] += mintedAmount;\n        totalSupply += mintedAmount;\n\n\n        Transfer(0, this, mintedAmount);\n        Transfer(this, target, mintedAmount);\n    }\n\n    /**\n     * 增加冻结帐户名称\n     *\n     * 你可能需要监管功能以便你能控制谁可以/谁不可以使用你创建的代币合约\n     *\n     * @param  target address 帐户地址\n     * @param  freeze bool    是否冻结\n     */\n    function freezeAccount(address target, bool freeze)\n        validAddress(target)\n        public\n        onlyOwner\n    {\n        frozenAccount[target] = freeze;\n        FrozenFunds(target, freeze);\n    }\n\n    /**\n     * 设置买卖价格\n     *\n     * 如果你想让ether(或其他代币)为你的代币进行背书,以便可以市场价自动化买卖代币,我们可以这么做。如果要使用浮动的价格，也可以在这里设置\n     *\n     * @param newSellPrice 新的卖出价格\n     * @param newBuyPrice 新的买入价格\n     */\n    function setPrices(uint256 newSellPrice, uint256 newBuyPrice) public onlyOwner {\n        sellPrice = newSellPrice;\n        buyPrice = newBuyPrice;\n    }\n\n    /**\n     * 使用以太币购买代币\n     */\n    function buy() payable public {\n      uint amount = msg.value / buyPrice;\n\n      _transfer(this, msg.sender, amount);\n    }\n\n    /**\n     * @dev 卖出代币\n     * @return 要卖出的数量(单位是wei)\n     */\n    function sell(uint256 amount) public {\n\n        //检查合约的余额是否充足\n        require(this.balance >= amount * sellPrice);\n\n        _transfer(msg.sender, this, amount);\n\n        msg.sender.transfer(amount * sellPrice);\n    }\n}\n",
  "sourcePath": "/Users/lion/my_project/_eth/test_truffle1/contracts/MyAdvancedToken.sol",
  "compiler": {
    "name": "solc",
    "version": "0.4.18+commit.9cf6e910.Emscripten.clang"
  },
  "schemaVersion": "1.0.1",
  "updatedAt": "2017-11-05T13:45:28.517Z"
}