{
  "contractName": "SmartToken",
  "abi": [
    {
      "constant": true,
      "inputs": [],
      "name": "name",
      "outputs": [
        {
          "name": "",
          "type": "string"
        }
      ],
      "payable": false,
      "stateMutability": "view",
      "type": "function"
    },
    {
      "constant": false,
      "inputs": [
        {
          "name": "_spender",
          "type": "address"
        },
        {
          "name": "_value",
          "type": "uint256"
        }
      ],
      "name": "approve",
      "outputs": [
        {
          "name": "success",
          "type": "bool"
        }
      ],
      "payable": false,
      "stateMutability": "nonpayable",
      "type": "function"
    },
    {
      "constant": true,
      "inputs": [],
      "name": "totalSupply",
      "outputs": [
        {
          "name": "",
          "type": "uint256"
        }
      ],
      "payable": false,
      "stateMutability": "view",
      "type": "function"
    },
    {
      "constant": false,
      "inputs": [
        {
          "name": "_from",
          "type": "address"
        },
        {
          "name": "_to",
          "type": "address"
        },
        {
          "name": "_value",
          "type": "uint256"
        }
      ],
      "name": "transferFrom",
      "outputs": [
        {
          "name": "",
          "type": "bool"
        }
      ],
      "payable": false,
      "stateMutability": "nonpayable",
      "type": "function"
    },
    {
      "constant": true,
      "inputs": [],
      "name": "decimals",
      "outputs": [
        {
          "name": "",
          "type": "uint8"
        }
      ],
      "payable": false,
      "stateMutability": "view",
      "type": "function"
    },
    {
      "constant": true,
      "inputs": [],
      "name": "version",
      "outputs": [
        {
          "name": "",
          "type": "string"
        }
      ],
      "payable": false,
      "stateMutability": "view",
      "type": "function"
    },
    {
      "constant": true,
      "inputs": [],
      "name": "standard",
      "outputs": [
        {
          "name": "",
          "type": "string"
        }
      ],
      "payable": false,
      "stateMutability": "view",
      "type": "function"
    },
    {
      "constant": true,
      "inputs": [
        {
          "name": "",
          "type": "address"
        }
      ],
      "name": "balanceOf",
      "outputs": [
        {
          "name": "",
          "type": "uint256"
        }
      ],
      "payable": false,
      "stateMutability": "view",
      "type": "function"
    },
    {
      "constant": false,
      "inputs": [],
      "name": "acceptOwnership",
      "outputs": [],
      "payable": false,
      "stateMutability": "nonpayable",
      "type": "function"
    },
    {
      "constant": false,
      "inputs": [
        {
          "name": "_to",
          "type": "address"
        },
        {
          "name": "_amount",
          "type": "uint256"
        }
      ],
      "name": "issue",
      "outputs": [],
      "payable": false,
      "stateMutability": "nonpayable",
      "type": "function"
    },
    {
      "constant": true,
      "inputs": [],
      "name": "owner",
      "outputs": [
        {
          "name": "",
          "type": "address"
        }
      ],
      "payable": false,
      "stateMutability": "view",
      "type": "function"
    },
    {
      "constant": true,
      "inputs": [],
      "name": "symbol",
      "outputs": [
        {
          "name": "",
          "type": "string"
        }
      ],
      "payable": false,
      "stateMutability": "view",
      "type": "function"
    },
    {
      "constant": false,
      "inputs": [
        {
          "name": "_to",
          "type": "address"
        },
        {
          "name": "_value",
          "type": "uint256"
        }
      ],
      "name": "transfer",
      "outputs": [
        {
          "name": "",
          "type": "bool"
        }
      ],
      "payable": false,
      "stateMutability": "nonpayable",
      "type": "function"
    },
    {
      "constant": true,
      "inputs": [],
      "name": "newOwner",
      "outputs": [
        {
          "name": "",
          "type": "address"
        }
      ],
      "payable": false,
      "stateMutability": "view",
      "type": "function"
    },
    {
      "constant": true,
      "inputs": [
        {
          "name": "",
          "type": "address"
        },
        {
          "name": "",
          "type": "address"
        }
      ],
      "name": "allowance",
      "outputs": [
        {
          "name": "",
          "type": "uint256"
        }
      ],
      "payable": false,
      "stateMutability": "view",
      "type": "function"
    },
    {
      "constant": false,
      "inputs": [
        {
          "name": "_newOwner",
          "type": "address"
        }
      ],
      "name": "transferOwnership",
      "outputs": [],
      "payable": false,
      "stateMutability": "nonpayable",
      "type": "function"
    },
    {
      "inputs": [
        {
          "name": "tokenName",
          "type": "string"
        },
        {
          "name": "tokenSymbol",
          "type": "string"
        },
        {
          "name": "decimalsUnits",
          "type": "uint8"
        }
      ],
      "payable": false,
      "stateMutability": "nonpayable",
      "type": "constructor"
    },
    {
      "anonymous": false,
      "inputs": [
        {
          "indexed": false,
          "name": "_token",
          "type": "address"
        }
      ],
      "name": "NewSmartToken",
      "type": "event"
    },
    {
      "anonymous": false,
      "inputs": [
        {
          "indexed": true,
          "name": "from",
          "type": "address"
        },
        {
          "indexed": true,
          "name": "to",
          "type": "address"
        },
        {
          "indexed": false,
          "name": "value",
          "type": "uint256"
        }
      ],
      "name": "Transfer",
      "type": "event"
    },
    {
      "anonymous": false,
      "inputs": [
        {
          "indexed": true,
          "name": "_owner",
          "type": "address"
        },
        {
          "indexed": true,
          "name": "_spender",
          "type": "address"
        },
        {
          "indexed": false,
          "name": "_value",
          "type": "uint256"
        }
      ],
      "name": "Approval",
      "type": "event"
    },
    {
      "anonymous": false,
      "inputs": [
        {
          "indexed": false,
          "name": "_prevOwner",
          "type": "address"
        },
        {
          "indexed": false,
          "name": "_newOwner",
          "type": "address"
        }
      ],
      "name": "OwnerUpdate",
      "type": "event"
    }
  ],
  "bytecode": "0x60606040526040805190810160405280601081526020017f68747470733a2f2f6d73686b2e746f7000000000000000000000000000000000815250600290805190602001906200005192919062000270565b506020604051908101604052806000815250600390805190602001906200007a92919062000270565b50602060405190810160405280600081525060049080519060200190620000a392919062000270565b506000600560006101000a81548160ff021916908360ff16021790555060006006556040805190810160405280600381526020017f302e310000000000000000000000000000000000000000000000000000000000815250600990805190602001906200011292919062000270565b5034156200011f57600080fd5b6040516200191c3803806200191c83398101604052808051820191906020018051820191906020018051906020019091905050828282336000806101000a81548173ffffffffffffffffffffffffffffffffffffffff021916908373ffffffffffffffffffffffffffffffffffffffff16021790555060008351118015620001a8575060008251115b1515620001b457600080fd5b8260039080519060200190620001cc92919062000270565b508160049080519060200190620001e592919062000270565b5080600560006101000a81548160ff021916908360ff1602179055505050507ff4cd1f8571e8d9c97ffcb81558807ab73f9803d54de5da6a0420593c82a4a9f030604051808273ffffffffffffffffffffffffffffffffffffffff1673ffffffffffffffffffffffffffffffffffffffff16815260200191505060405180910390a15050506200031f565b828054600181600116156101000203166002900490600052602060002090601f016020900481019282601f10620002b357805160ff1916838001178555620002e4565b82800160010185558215620002e4579182015b82811115620002e3578251825591602001919060010190620002c6565b5b509050620002f39190620002f7565b5090565b6200031c91905b8082111562000318576000816000905550600101620002fe565b5090565b90565b6115ed806200032f6000396000f3006060604052600436106100e6576000357c0100000000000000000000000000000000000000000000000000000000900463ffffffff16806306fdde03146100eb578063095ea7b31461017957806318160ddd146101d357806323b872dd146101fc578063313ce5671461027557806354fd4d50146102a45780635a3b7e421461033257806370a08231146103c057806379ba50971461040d578063867904b4146104225780638da5cb5b1461046457806395d89b41146104b9578063a9059cbb14610547578063d4ee1d90146105a1578063dd62ed3e146105f6578063f2fde38b14610662575b600080fd5b34156100f657600080fd5b6100fe61069b565b6040518080602001828103825283818151815260200191508051906020019080838360005b8381101561013e578082015181840152602081019050610123565b50505050905090810190601f16801561016b5780820380516001836020036101000a031916815260200191505b509250505060405180910390f35b341561018457600080fd5b6101b9600480803573ffffffffffffffffffffffffffffffffffffffff16906020019091908035906020019091905050610739565b604051808215151515815260200191505060405180910390f35b34156101de57600080fd5b6101e66108e9565b6040518082815260200191505060405180910390f35b341561020757600080fd5b61025b600480803573ffffffffffffffffffffffffffffffffffffffff1690602001909190803573ffffffffffffffffffffffffffffffffffffffff169060200190919080359060200190919050506108ef565b604051808215151515815260200191505060405180910390f35b341561028057600080fd5b610288610af1565b604051808260ff1660ff16815260200191505060405180910390f35b34156102af57600080fd5b6102b7610b04565b6040518080602001828103825283818151815260200191508051906020019080838360005b838110156102f75780820151818401526020810190506102dc565b50505050905090810190601f1680156103245780820380516001836020036101000a031916815260200191505b509250505060405180910390f35b341561033d57600080fd5b610345610ba2565b6040518080602001828103825283818151815260200191508051906020019080838360005b8381101561038557808201518184015260208101905061036a565b50505050905090810190601f1680156103b25780820380516001836020036101000a031916815260200191505b509250505060405180910390f35b34156103cb57600080fd5b6103f7600480803573ffffffffffffffffffffffffffffffffffffffff16906020019091905050610c40565b6040518082815260200191505060405180910390f35b341561041857600080fd5b610420610c58565b005b341561042d57600080fd5b610462600480803573ffffffffffffffffffffffffffffffffffffffff16906020019091908035906020019091905050610e34565b005b341561046f57600080fd5b610477610f76565b604051808273ffffffffffffffffffffffffffffffffffffffff1673ffffffffffffffffffffffffffffffffffffffff16815260200191505060405180910390f35b34156104c457600080fd5b6104cc610f9b565b6040518080602001828103825283818151815260200191508051906020019080838360005b8381101561050c5780820151818401526020810190506104f1565b50505050905090810190601f1680156105395780820380516001836020036101000a031916815260200191505b509250505060405180910390f35b341561055257600080fd5b610587600480803573ffffffffffffffffffffffffffffffffffffffff16906020019091908035906020019091905050611039565b604051808215151515815260200191505060405180910390f35b34156105ac57600080fd5b6105b4611078565b604051808273ffffffffffffffffffffffffffffffffffffffff1673ffffffffffffffffffffffffffffffffffffffff16815260200191505060405180910390f35b341561060157600080fd5b61064c600480803573ffffffffffffffffffffffffffffffffffffffff1690602001909190803573ffffffffffffffffffffffffffffffffffffffff1690602001909190505061109e565b6040518082815260200191505060405180910390f35b341561066d57600080fd5b610699600480803573ffffffffffffffffffffffffffffffffffffffff169060200190919050506110c3565b005b60038054600181600116156101000203166002900480601f0160208091040260200160405190810160405280929190818152602001828054600181600116156101000203166002900480156107315780601f1061070657610100808354040283529160200191610731565b820191906000526020600020905b81548152906001019060200180831161071457829003601f168201915b505050505081565b60008260008173ffffffffffffffffffffffffffffffffffffffff161415151561076257600080fd5b60008314806107ed57506000600860003373ffffffffffffffffffffffffffffffffffffffff1673ffffffffffffffffffffffffffffffffffffffff16815260200190815260200160002060008673ffffffffffffffffffffffffffffffffffffffff1673ffffffffffffffffffffffffffffffffffffffff16815260200190815260200160002054145b15156107f857600080fd5b82600860003373ffffffffffffffffffffffffffffffffffffffff1673ffffffffffffffffffffffffffffffffffffffff16815260200190815260200160002060008673ffffffffffffffffffffffffffffffffffffffff1673ffffffffffffffffffffffffffffffffffffffff168152602001908152602001600020819055508373ffffffffffffffffffffffffffffffffffffffff163373ffffffffffffffffffffffffffffffffffffffff167f8c5be1e5ebec7d5bd14f71427d1e84f3dd0314c0f7b2291e5b200ac8c7c3b925856040518082815260200191505060405180910390a3600191505092915050565b60065481565b60008360008173ffffffffffffffffffffffffffffffffffffffff161415151561091857600080fd5b8360008173ffffffffffffffffffffffffffffffffffffffff161415151561093f57600080fd5b600860008773ffffffffffffffffffffffffffffffffffffffff1673ffffffffffffffffffffffffffffffffffffffff16815260200190815260200160002060003373ffffffffffffffffffffffffffffffffffffffff1673ffffffffffffffffffffffffffffffffffffffff1681526020019081526020016000205484111515156109ca57600080fd5b610a50600860008873ffffffffffffffffffffffffffffffffffffffff1673ffffffffffffffffffffffffffffffffffffffff16815260200190815260200160002060003373ffffffffffffffffffffffffffffffffffffffff1673ffffffffffffffffffffffffffffffffffffffff16815260200190815260200160002054856111bb565b600860008873ffffffffffffffffffffffffffffffffffffffff1673ffffffffffffffffffffffffffffffffffffffff16815260200190815260200160002060003373ffffffffffffffffffffffffffffffffffffffff1673ffffffffffffffffffffffffffffffffffffffff16815260200190815260200160002060008282540392505081905550610ae48686866111d4565b6001925050509392505050565b600560009054906101000a900460ff1681565b60098054600181600116156101000203166002900480601f016020809104026020016040519081016040528092919081815260200182805460018160011615610100020316600290048015610b9a5780601f10610b6f57610100808354040283529160200191610b9a565b820191906000526020600020905b815481529060010190602001808311610b7d57829003601f168201915b505050505081565b60028054600181600116156101000203166002900480601f016020809104026020016040519081016040528092919081815260200182805460018160011615610100020316600290048015610c385780601f10610c0d57610100808354040283529160200191610c38565b820191906000526020600020905b815481529060010190602001808311610c1b57829003601f168201915b505050505081565b60076020528060005260406000206000915090505481565b600160009054906101000a900473ffffffffffffffffffffffffffffffffffffffff1673ffffffffffffffffffffffffffffffffffffffff163373ffffffffffffffffffffffffffffffffffffffff16141515610cb457600080fd5b7f343765429aea5a34b3ff6a3785a98a5abb2597aca87bfbb58632c173d585373a6000809054906101000a900473ffffffffffffffffffffffffffffffffffffffff16600160009054906101000a900473ffffffffffffffffffffffffffffffffffffffff16604051808373ffffffffffffffffffffffffffffffffffffffff1673ffffffffffffffffffffffffffffffffffffffff1681526020018273ffffffffffffffffffffffffffffffffffffffff1673ffffffffffffffffffffffffffffffffffffffff1681526020019250505060405180910390a1600160009054906101000a900473ffffffffffffffffffffffffffffffffffffffff166000806101000a81548173ffffffffffffffffffffffffffffffffffffffff021916908373ffffffffffffffffffffffffffffffffffffffff1602179055506000600160006101000a81548173ffffffffffffffffffffffffffffffffffffffff021916908373ffffffffffffffffffffffffffffffffffffffff160217905550565b8160008173ffffffffffffffffffffffffffffffffffffffff1614151515610e5b57600080fd5b600560009054906101000a900460ff1660ff16600a0a820291508160065401600681905550610ec9600760008573ffffffffffffffffffffffffffffffffffffffff1673ffffffffffffffffffffffffffffffffffffffff16815260200190815260200160002054836115a3565b600760008573ffffffffffffffffffffffffffffffffffffffff1673ffffffffffffffffffffffffffffffffffffffff168152602001908152602001600020819055508273ffffffffffffffffffffffffffffffffffffffff163073ffffffffffffffffffffffffffffffffffffffff167fddf252ad1be2c89b69c2b068fc378daa952ba7f163c4a11628f55a4df523b3ef846040518082815260200191505060405180910390a3505050565b6000809054906101000a900473ffffffffffffffffffffffffffffffffffffffff1681565b60048054600181600116156101000203166002900480601f0160208091040260200160405190810160405280929190818152602001828054600181600116156101000203166002900480156110315780601f1061100657610100808354040283529160200191611031565b820191906000526020600020905b81548152906001019060200180831161101457829003601f168201915b505050505081565b60008260008173ffffffffffffffffffffffffffffffffffffffff161415151561106257600080fd5b61106d3385856111d4565b600191505092915050565b600160009054906101000a900473ffffffffffffffffffffffffffffffffffffffff1681565b6008602052816000526040600020602052806000526040600020600091509150505481565b6000809054906101000a900473ffffffffffffffffffffffffffffffffffffffff1673ffffffffffffffffffffffffffffffffffffffff163373ffffffffffffffffffffffffffffffffffffffff1614151561111b57fe5b6000809054906101000a900473ffffffffffffffffffffffffffffffffffffffff1673ffffffffffffffffffffffffffffffffffffffff168173ffffffffffffffffffffffffffffffffffffffff161415151561117757600080fd5b80600160006101000a81548173ffffffffffffffffffffffffffffffffffffffff021916908373ffffffffffffffffffffffffffffffffffffffff16021790555050565b60008183101515156111c957fe5b818303905092915050565b60008360008173ffffffffffffffffffffffffffffffffffffffff16141515156111fd57600080fd5b8360008173ffffffffffffffffffffffffffffffffffffffff161415151561122457600080fd5b83600760008873ffffffffffffffffffffffffffffffffffffffff1673ffffffffffffffffffffffffffffffffffffffff168152602001908152602001600020541015151561127257600080fd5b600760008673ffffffffffffffffffffffffffffffffffffffff1673ffffffffffffffffffffffffffffffffffffffff1681526020019081526020016000205484600760008873ffffffffffffffffffffffffffffffffffffffff1673ffffffffffffffffffffffffffffffffffffffff168152602001908152602001600020540111151561130057600080fd5b611388600760008873ffffffffffffffffffffffffffffffffffffffff1673ffffffffffffffffffffffffffffffffffffffff16815260200190815260200160002054600760008873ffffffffffffffffffffffffffffffffffffffff1673ffffffffffffffffffffffffffffffffffffffff168152602001908152602001600020546115a3565b92506113d3600760008873ffffffffffffffffffffffffffffffffffffffff1673ffffffffffffffffffffffffffffffffffffffff16815260200190815260200160002054856111bb565b600760008873ffffffffffffffffffffffffffffffffffffffff1673ffffffffffffffffffffffffffffffffffffffff1681526020019081526020016000208190555061145f600760008773ffffffffffffffffffffffffffffffffffffffff1673ffffffffffffffffffffffffffffffffffffffff16815260200190815260200160002054856115a3565b600760008773ffffffffffffffffffffffffffffffffffffffff1673ffffffffffffffffffffffffffffffffffffffff168152602001908152602001600020600082825401925050819055508473ffffffffffffffffffffffffffffffffffffffff168673ffffffffffffffffffffffffffffffffffffffff167fddf252ad1be2c89b69c2b068fc378daa952ba7f163c4a11628f55a4df523b3ef866040518082815260200191505060405180910390a382600760008773ffffffffffffffffffffffffffffffffffffffff1673ffffffffffffffffffffffffffffffffffffffff16815260200190815260200160002054600760008973ffffffffffffffffffffffffffffffffffffffff1673ffffffffffffffffffffffffffffffffffffffff168152602001908152602001600020540114151561159b57fe5b505050505050565b60008082840190508381101515156115b757fe5b80915050929150505600a165627a7a723058208d2ac43e05828ca930db9c7884ada7239f5611312aefc2e7e69e525bc96eeb020029",
  "source": "pragma solidity ^0.4.17;\nimport './Token.sol';\nimport './Owned.sol';\nimport './interfaces/ISmartToken.sol';\n\ncontract SmartToken is ISmartToken, Owned, Token {\n\n    string public version = '0.1';\n\n    // triggered when a smart token is deployed - the _token address is defined for forward compatibility, in case we want to trigger the event from a factory\n    event NewSmartToken(address _token);\n\n    /* 初始化合约，并且把初始的所有代币都给这合约的创建者\n     * @param tokenName 代币名称\n     * @param tokenSymbol 代币符号\n     * @param decimalsUnits 代币后面的单位，小数点后面多少个0，以太币一样后面是是18个0\n     */\n    function SmartToken(string tokenName, string tokenSymbol, uint8 decimalsUnits)\n        public\n        Token (tokenName, tokenSymbol, decimalsUnits)\n    {\n        NewSmartToken(address(this));\n    }\n\n\n    /**\n     * 增加代币，并将代币发送给捐赠新用户\n     * @param  _to address 接受代币的地址\n     * @param  _amount uint256 接受代币的数量\n     */\n    function issue(address _to, uint256 _amount)\n       validAddress(_to)\n       public\n   {\n        _amount = _amount * 10 ** uint256(decimals);\n        totalSupply = totalSupply + _amount;\n        balanceOf[_to] = safeAdd(balanceOf[_to], _amount);\n\n        //通知任何监听该交易的客户端\n        Transfer(this, _to, _amount);\n    }\n\n\n}\n",
  "sourcePath": "/Users/lion/my_project/_eth/test_truffle1/contracts/SmartToken.sol",
  "compiler": {
    "name": "solc",
    "version": "0.4.18+commit.9cf6e910.Emscripten.clang"
  },
  "schemaVersion": "1.0.1",
  "updatedAt": "2017-11-05T13:45:28.497Z"
}